{
  "contractName": "PongMatches",
  "abi": [
    {
      "anonymous": false,
      "inputs": [
        {
          "indexed": false,
          "internalType": "string",
          "name": "matchId",
          "type": "string"
        },
        {
          "indexed": false,
          "internalType": "string",
          "name": "participant1",
          "type": "string"
        },
        {
          "indexed": false,
          "internalType": "string",
          "name": "participant2",
          "type": "string"
        },
        {
          "indexed": false,
          "internalType": "string",
          "name": "score",
          "type": "string"
        },
        {
          "indexed": false,
          "internalType": "string",
          "name": "winner",
          "type": "string"
        }
      ],
      "name": "MatchAdded",
      "type": "event"
    },
    {
      "inputs": [
        {
          "internalType": "string",
          "name": "",
          "type": "string"
        }
      ],
      "name": "matchExists",
      "outputs": [
        {
          "internalType": "bool",
          "name": "",
          "type": "bool"
        }
      ],
      "stateMutability": "view",
      "type": "function",
      "constant": true
    },
    {
      "inputs": [
        {
          "internalType": "string",
          "name": "",
          "type": "string"
        }
      ],
      "name": "matchIndexById",
      "outputs": [
        {
          "internalType": "uint256",
          "name": "",
          "type": "uint256"
        }
      ],
      "stateMutability": "view",
      "type": "function",
      "constant": true
    },
    {
      "inputs": [
        {
          "internalType": "uint256",
          "name": "",
          "type": "uint256"
        }
      ],
      "name": "matches",
      "outputs": [
        {
          "internalType": "string",
          "name": "matchId",
          "type": "string"
        },
        {
          "internalType": "string",
          "name": "participant1",
          "type": "string"
        },
        {
          "internalType": "string",
          "name": "participant2",
          "type": "string"
        },
        {
          "internalType": "string",
          "name": "score",
          "type": "string"
        },
        {
          "internalType": "string",
          "name": "winner",
          "type": "string"
        }
      ],
      "stateMutability": "view",
      "type": "function",
      "constant": true
    },
    {
      "inputs": [
        {
          "internalType": "string",
          "name": "_matchId",
          "type": "string"
        },
        {
          "internalType": "string",
          "name": "_participant1",
          "type": "string"
        },
        {
          "internalType": "string",
          "name": "_participant2",
          "type": "string"
        },
        {
          "internalType": "string",
          "name": "_score",
          "type": "string"
        },
        {
          "internalType": "string",
          "name": "_winner",
          "type": "string"
        }
      ],
      "name": "addMatch",
      "outputs": [],
      "stateMutability": "nonpayable",
      "type": "function"
    },
    {
      "inputs": [
        {
          "internalType": "string",
          "name": "_matchId",
          "type": "string"
        }
      ],
      "name": "getMatchById",
      "outputs": [
        {
          "components": [
            {
              "internalType": "string",
              "name": "matchId",
              "type": "string"
            },
            {
              "internalType": "string",
              "name": "participant1",
              "type": "string"
            },
            {
              "internalType": "string",
              "name": "participant2",
              "type": "string"
            },
            {
              "internalType": "string",
              "name": "score",
              "type": "string"
            },
            {
              "internalType": "string",
              "name": "winner",
              "type": "string"
            }
          ],
          "internalType": "struct PongMatches.Match",
          "name": "",
          "type": "tuple"
        }
      ],
      "stateMutability": "view",
      "type": "function",
      "constant": true
    },
    {
      "inputs": [],
      "name": "getAllMatches",
      "outputs": [
        {
          "components": [
            {
              "internalType": "string",
              "name": "matchId",
              "type": "string"
            },
            {
              "internalType": "string",
              "name": "participant1",
              "type": "string"
            },
            {
              "internalType": "string",
              "name": "participant2",
              "type": "string"
            },
            {
              "internalType": "string",
              "name": "score",
              "type": "string"
            },
            {
              "internalType": "string",
              "name": "winner",
              "type": "string"
            }
          ],
          "internalType": "struct PongMatches.Match[]",
          "name": "",
          "type": "tuple[]"
        }
      ],
      "stateMutability": "view",
      "type": "function",
      "constant": true
    }
  ],
  "bytecode": "0x608060405234801561001057600080fd5b50611239806100206000396000f3fe608060405234801561001057600080fd5b50600436106100625760003560e01c80634768d4ef1461006757806374eaf847146100945780638fa5f107146100b4578063c17c5a45146100d4578063cc299082146100e9578063f02c935a146100fe575b600080fd5b61007a610075366004610f2d565b61011e565b60405161008b95949392919061107d565b60405180910390f35b6100a76100a2366004610e26565b61040c565b60405161008b9190611072565b6100c76100c2366004610e26565b61042c565b60405161008b919061113c565b6100dc6107bb565b60405161008b9190611012565b6100fc6100f7366004610e61565b610af4565b005b61011161010c366004610e26565b610cc0565b60405161008b9190611156565b6000818154811061012e57600080fd5b9060005260206000209060050201600091509050806000018054610151906111b2565b80601f016020809104026020016040519081016040528092919081815260200182805461017d906111b2565b80156101ca5780601f1061019f576101008083540402835291602001916101ca565b820191906000526020600020905b8154815290600101906020018083116101ad57829003601f168201915b5050505050908060010180546101df906111b2565b80601f016020809104026020016040519081016040528092919081815260200182805461020b906111b2565b80156102585780601f1061022d57610100808354040283529160200191610258565b820191906000526020600020905b81548152906001019060200180831161023b57829003601f168201915b50505050509080600201805461026d906111b2565b80601f0160208091040260200160405190810160405280929190818152602001828054610299906111b2565b80156102e65780601f106102bb576101008083540402835291602001916102e6565b820191906000526020600020905b8154815290600101906020018083116102c957829003601f168201915b5050505050908060030180546102fb906111b2565b80601f0160208091040260200160405190810160405280929190818152602001828054610327906111b2565b80156103745780601f1061034957610100808354040283529160200191610374565b820191906000526020600020905b81548152906001019060200180831161035757829003601f168201915b505050505090806004018054610389906111b2565b80601f01602080910402602001604051908101604052809291908181526020018280546103b5906111b2565b80156104025780601f106103d757610100808354040283529160200191610402565b820191906000526020600020905b8154815290600101906020018083116103e557829003601f168201915b5050505050905085565b805160208183018101805160028252928201919093012091525460ff1681565b610434610cdd565b6002826040516104449190610ff6565b9081526040519081900360200190205460ff1661047c5760405162461bcd60e51b8152600401610473906110ea565b60405180910390fd5b600060018360405161048e9190610ff6565b9081526020016040518091039020549050600081815481106104c057634e487b7160e01b600052603260045260246000fd5b90600052602060002090600502016040518060a00160405290816000820180546104e9906111b2565b80601f0160208091040260200160405190810160405280929190818152602001828054610515906111b2565b80156105625780601f1061053757610100808354040283529160200191610562565b820191906000526020600020905b81548152906001019060200180831161054557829003601f168201915b5050505050815260200160018201805461057b906111b2565b80601f01602080910402602001604051908101604052809291908181526020018280546105a7906111b2565b80156105f45780601f106105c9576101008083540402835291602001916105f4565b820191906000526020600020905b8154815290600101906020018083116105d757829003601f168201915b5050505050815260200160028201805461060d906111b2565b80601f0160208091040260200160405190810160405280929190818152602001828054610639906111b2565b80156106865780601f1061065b57610100808354040283529160200191610686565b820191906000526020600020905b81548152906001019060200180831161066957829003601f168201915b5050505050815260200160038201805461069f906111b2565b80601f01602080910402602001604051908101604052809291908181526020018280546106cb906111b2565b80156107185780601f106106ed57610100808354040283529160200191610718565b820191906000526020600020905b8154815290600101906020018083116106fb57829003601f168201915b50505050508152602001600482018054610731906111b2565b80601f016020809104026020016040519081016040528092919081815260200182805461075d906111b2565b80156107aa5780601f1061077f576101008083540402835291602001916107aa565b820191906000526020600020905b81548152906001019060200180831161078d57829003601f168201915b505050505081525050915050919050565b60606000805480602002602001604051908101604052809291908181526020016000905b82821015610aeb57838290600052602060002090600502016040518060a0016040529081600082018054610812906111b2565b80601f016020809104026020016040519081016040528092919081815260200182805461083e906111b2565b801561088b5780601f106108605761010080835404028352916020019161088b565b820191906000526020600020905b81548152906001019060200180831161086e57829003601f168201915b505050505081526020016001820180546108a4906111b2565b80601f01602080910402602001604051908101604052809291908181526020018280546108d0906111b2565b801561091d5780601f106108f25761010080835404028352916020019161091d565b820191906000526020600020905b81548152906001019060200180831161090057829003601f168201915b50505050508152602001600282018054610936906111b2565b80601f0160208091040260200160405190810160405280929190818152602001828054610962906111b2565b80156109af5780601f10610984576101008083540402835291602001916109af565b820191906000526020600020905b81548152906001019060200180831161099257829003601f168201915b505050505081526020016003820180546109c8906111b2565b80601f01602080910402602001604051908101604052809291908181526020018280546109f4906111b2565b8015610a415780601f10610a1657610100808354040283529160200191610a41565b820191906000526020600020905b815481529060010190602001808311610a2457829003601f168201915b50505050508152602001600482018054610a5a906111b2565b80601f0160208091040260200160405190810160405280929190818152602001828054610a86906111b2565b8015610ad35780601f10610aa857610100808354040283529160200191610ad3565b820191906000526020600020905b815481529060010190602001808311610ab657829003601f168201915b505050505081525050815260200190600101906107df565b50505050905090565b600285604051610b049190610ff6565b9081526040519081900360200190205460ff1615610b345760405162461bcd60e51b815260040161047390611113565b6040805160a0810182528681526020808201879052918101859052606081018490526080810183905260008054600181018255908052815180519293849360059093027f290decd9548b62a8d60345a988386fc84ba6bc95484008f6362f93160ef3e5630192610ba79284920190610d0c565b506020828101518051610bc09260018501920190610d0c565b5060408201518051610bdc916002840191602090910190610d0c565b5060608201518051610bf8916003840191602090910190610d0c565b5060808201518051610c14916004840191602090910190610d0c565b5050600054610c26915060019061115f565b600187604051610c369190610ff6565b9081526020016040518091039020819055506001600287604051610c5a9190610ff6565b908152604051908190036020018120805492151560ff19909316929092179091557f9591c0a4b9731c889974dd1332544107ca6446da91495feec566e0922ab4735390610cb0908890889088908890889061107d565b60405180910390a1505050505050565b805160208183018101805160018252928201919093012091525481565b6040518060a0016040528060608152602001606081526020016060815260200160608152602001606081525090565b828054610d18906111b2565b90600052602060002090601f016020900481019282610d3a5760008555610d80565b82601f10610d5357805160ff1916838001178555610d80565b82800160010185558215610d80579182015b82811115610d80578251825591602001919060010190610d65565b50610d8c929150610d90565b5090565b5b80821115610d8c5760008155600101610d91565b600082601f830112610db5578081fd5b813567ffffffffffffffff80821115610dd057610dd06111ed565b604051601f8301601f191681016020018281118282101715610df457610df46111ed565b604052828152848301602001861015610e0b578384fd5b82602086016020830137918201602001929092529392505050565b600060208284031215610e37578081fd5b813567ffffffffffffffff811115610e4d578182fd5b610e5984828501610da5565b949350505050565b600080600080600060a08688031215610e78578081fd5b853567ffffffffffffffff80821115610e8f578283fd5b610e9b89838a01610da5565b96506020880135915080821115610eb0578283fd5b610ebc89838a01610da5565b95506040880135915080821115610ed1578283fd5b610edd89838a01610da5565b94506060880135915080821115610ef2578283fd5b610efe89838a01610da5565b93506080880135915080821115610f13578283fd5b50610f2088828901610da5565b9150509295509295909350565b600060208284031215610f3e578081fd5b5035919050565b60008151808452610f5d816020860160208601611182565b601f01601f19169290920160200192915050565b6000815160a08452610f8660a0850182610f45565b905060208301518482036020860152610f9f8282610f45565b91505060408301518482036040860152610fb98282610f45565b91505060608301518482036060860152610fd38282610f45565b91505060808301518482036080860152610fed8282610f45565b95945050505050565b60008251611008818460208701611182565b9190910192915050565b6000602080830181845280855180835260408601915060408482028701019250838701855b8281101561106557603f19888603018452611053858351610f71565b94509285019290850190600101611037565b5092979650505050505050565b901515815260200190565b600060a0825261109060a0830188610f45565b82810360208401526110a28188610f45565b905082810360408401526110b68187610f45565b905082810360608401526110ca8186610f45565b905082810360808401526110de8185610f45565b98975050505050505050565b6020808252600f908201526e1b585d18da081b9bdd08199bdd5b99608a1b604082015260600190565b6020808252600f908201526e1a5908185b1c9958591e481d5cd959608a1b604082015260600190565b60006020825261114f6020830184610f71565b9392505050565b90815260200190565b60008282101561117d57634e487b7160e01b81526011600452602481fd5b500390565b60005b8381101561119d578181015183820152602001611185565b838111156111ac576000848401525b50505050565b6002810460018216806111c657607f821691505b602082108114156111e757634e487b7160e01b600052602260045260246000fd5b50919050565b634e487b7160e01b600052604160045260246000fdfea2646970667358221220d602a24f1e0cb29782d21343026f8844a4117d1615bb4c652a5464501a93b96864736f6c63430008000033",
  "immutableReferences": {},
  "source": "// SPDX-License-Identifier: MIT\npragma solidity ^0.8.0;\n\ncontract PongMatches {\n    struct Match {\n        string matchId;\n        string participant1;\n        string participant2;\n        string score;\n        string winner;\n    }\n\n    Match[] public matches;\n    mapping(string => uint) public matchIndexById;\n    mapping(string => bool) public matchExists;\n\n    event MatchAdded(string matchId, string participant1, string participant2, string score, string winner);\n\n    function addMatch(\n        string memory _matchId,\n        string memory _participant1,\n        string memory _participant2,\n        string memory _score,\n        string memory _winner\n    ) public {\n        // Vrification si l'ID de match existe dj\n        require(!matchExists[_matchId], \"id already used\");\n\n        Match memory newMatch = Match(_matchId, _participant1, _participant2, _score, _winner);\n        matches.push(newMatch);\n        matchIndexById[_matchId] = matches.length - 1;\n        matchExists[_matchId] = true;\n\n        emit MatchAdded(_matchId, _participant1, _participant2, _score, _winner);\n    }\n\n    function getMatchById(string memory _matchId) public view returns (Match memory) {\n        // Vrification si l'ID de match existe\n        require(matchExists[_matchId], \"match not found\");\n        \n        uint index = matchIndexById[_matchId];\n        return matches[index];\n    }\n\n    function getAllMatches() public view returns (Match[] memory) {\n        return matches;\n    }\n}",
  "sourcePath": "/app/blockchain/ALL_FILE_NEEDED/contracts/PongMatches.sol",
  "compiler": {
    "name": "solc",
    "version": "0.8.0+commit.c7dfd78e.Emscripten.clang"
  },
  "schemaVersion": "3.4.16",
  "updatedAt": "2024-08-13T20:44:15.031Z",
  "networkType": "ethereum",
  "devdoc": {
    "kind": "dev",
    "methods": {},
    "version": 1
  },
  "userdoc": {
    "kind": "user",
    "methods": {},
    "version": 1
  }
}